{
    "_format": "hh-sol-artifact-1",
    "contractName": "WalletSimple",
    "sourceName": "contracts/WalletSimple.sol",
    "abi": [
        {
            "anonymous": false,
            "inputs": [
                {
                    "indexed": false,
                    "internalType": "address",
                    "name": "from",
                    "type": "address"
                },
                {
                    "indexed": false,
                    "internalType": "uint256",
                    "name": "value",
                    "type": "uint256"
                },
                {
                    "indexed": false,
                    "internalType": "bytes",
                    "name": "data",
                    "type": "bytes"
                }
            ],
            "name": "Deposited",
            "type": "event"
        },
        {
            "anonymous": false,
            "inputs": [
                {
                    "indexed": false,
                    "internalType": "address",
                    "name": "msgSender",
                    "type": "address"
                }
            ],
            "name": "SafeModeActivated",
            "type": "event"
        },
        {
            "anonymous": false,
            "inputs": [
                {
                    "indexed": false,
                    "internalType": "address",
                    "name": "msgSender",
                    "type": "address"
                },
                {
                    "indexed": false,
                    "internalType": "address",
                    "name": "otherSigner",
                    "type": "address"
                },
                {
                    "indexed": false,
                    "internalType": "bytes32",
                    "name": "operation",
                    "type": "bytes32"
                },
                {
                    "indexed": false,
                    "internalType": "address",
                    "name": "toAddress",
                    "type": "address"
                },
                {
                    "indexed": false,
                    "internalType": "uint256",
                    "name": "value",
                    "type": "uint256"
                },
                {
                    "indexed": false,
                    "internalType": "bytes",
                    "name": "data",
                    "type": "bytes"
                }
            ],
            "name": "Transacted",
            "type": "event"
        },
        {
            "inputs": [],
            "name": "activateSafeMode",
            "outputs": [],
            "stateMutability": "nonpayable",
            "type": "function"
        },
        {
            "inputs": [],
            "name": "count",
            "outputs": [
                {
                    "internalType": "uint256",
                    "name": "",
                    "type": "uint256"
                }
            ],
            "stateMutability": "view",
            "type": "function"
        },
        {
            "inputs": [
                {
                    "internalType": "string",
                    "name": "prefix",
                    "type": "string"
                },
                {
                    "internalType": "address",
                    "name": "toAddress",
                    "type": "address"
                },
                {
                    "internalType": "uint256",
                    "name": "value",
                    "type": "uint256"
                },
                {
                    "internalType": "bytes",
                    "name": "data",
                    "type": "bytes"
                },
                {
                    "internalType": "uint256",
                    "name": "expireTime",
                    "type": "uint256"
                },
                {
                    "internalType": "uint256",
                    "name": "sequenceId",
                    "type": "uint256"
                }
            ],
            "name": "getMessageHash",
            "outputs": [
                {
                    "internalType": "bytes32",
                    "name": "",
                    "type": "bytes32"
                }
            ],
            "stateMutability": "pure",
            "type": "function"
        },
        {
            "inputs": [],
            "name": "getNextSequenceId",
            "outputs": [
                {
                    "internalType": "uint256",
                    "name": "",
                    "type": "uint256"
                }
            ],
            "stateMutability": "view",
            "type": "function"
        },
        {
            "inputs": [
                {
                    "internalType": "address[]",
                    "name": "allowedSigners",
                    "type": "address[]"
                }
            ],
            "name": "init",
            "outputs": [],
            "stateMutability": "nonpayable",
            "type": "function"
        },
        {
            "inputs": [],
            "name": "initialized",
            "outputs": [
                {
                    "internalType": "bool",
                    "name": "",
                    "type": "bool"
                }
            ],
            "stateMutability": "view",
            "type": "function"
        },
        {
            "inputs": [
                {
                    "internalType": "address",
                    "name": "signer",
                    "type": "address"
                }
            ],
            "name": "isSigner",
            "outputs": [
                {
                    "internalType": "bool",
                    "name": "",
                    "type": "bool"
                }
            ],
            "stateMutability": "view",
            "type": "function"
        },
        {
            "inputs": [
                {
                    "internalType": "bytes32",
                    "name": "operationHash",
                    "type": "bytes32"
                },
                {
                    "internalType": "bytes",
                    "name": "signature",
                    "type": "bytes"
                }
            ],
            "name": "recoverAddressFromSignature",
            "outputs": [
                {
                    "internalType": "address",
                    "name": "",
                    "type": "address"
                }
            ],
            "stateMutability": "pure",
            "type": "function"
        },
        {
            "inputs": [],
            "name": "safeMode",
            "outputs": [
                {
                    "internalType": "bool",
                    "name": "",
                    "type": "bool"
                }
            ],
            "stateMutability": "view",
            "type": "function"
        },
        {
            "inputs": [
                {
                    "internalType": "address",
                    "name": "toAddress",
                    "type": "address"
                },
                {
                    "internalType": "uint256",
                    "name": "value",
                    "type": "uint256"
                },
                {
                    "internalType": "bytes",
                    "name": "data",
                    "type": "bytes"
                },
                {
                    "internalType": "uint256",
                    "name": "expireTime",
                    "type": "uint256"
                },
                {
                    "internalType": "uint256",
                    "name": "sequenceId",
                    "type": "uint256"
                },
                {
                    "internalType": "bytes",
                    "name": "signature",
                    "type": "bytes"
                }
            ],
            "name": "sendMultiSig",
            "outputs": [],
            "stateMutability": "nonpayable",
            "type": "function"
        },
        {
            "inputs": [
                {
                    "internalType": "address",
                    "name": "toAddress",
                    "type": "address"
                },
                {
                    "internalType": "uint256",
                    "name": "value",
                    "type": "uint256"
                },
                {
                    "internalType": "address",
                    "name": "tokenContractAddress",
                    "type": "address"
                },
                {
                    "internalType": "uint256",
                    "name": "expireTime",
                    "type": "uint256"
                },
                {
                    "internalType": "uint256",
                    "name": "sequenceId",
                    "type": "uint256"
                },
                {
                    "internalType": "bytes",
                    "name": "signature",
                    "type": "bytes"
                }
            ],
            "name": "sendMultiSigToken",
            "outputs": [],
            "stateMutability": "nonpayable",
            "type": "function"
        },
        {
            "inputs": [
                {
                    "internalType": "address",
                    "name": "",
                    "type": "address"
                }
            ],
            "name": "signers",
            "outputs": [
                {
                    "internalType": "bool",
                    "name": "",
                    "type": "bool"
                }
            ],
            "stateMutability": "view",
            "type": "function"
        },
        {
            "inputs": [
                {
                    "internalType": "uint256",
                    "name": "sequenceId",
                    "type": "uint256"
                }
            ],
            "name": "tryInsertSequenceId",
            "outputs": [],
            "stateMutability": "nonpayable",
            "type": "function"
        },
        {
            "inputs": [
                {
                    "internalType": "address",
                    "name": "toAddress",
                    "type": "address"
                },
                {
                    "internalType": "bytes32",
                    "name": "operationHash",
                    "type": "bytes32"
                },
                {
                    "internalType": "bytes",
                    "name": "signature",
                    "type": "bytes"
                },
                {
                    "internalType": "uint256",
                    "name": "expireTime",
                    "type": "uint256"
                },
                {
                    "internalType": "uint256",
                    "name": "sequenceId",
                    "type": "uint256"
                }
            ],
            "name": "verifyMultiSig",
            "outputs": [
                {
                    "internalType": "address",
                    "name": "",
                    "type": "address"
                }
            ],
            "stateMutability": "nonpayable",
            "type": "function"
        }
    ],
    "bytecode": "0x60806040526000600160006101000a81548160ff02191690831515021790555060006001806101000a81548160ff02191690831515021790555034801561004557600080fd5b50611e7e806100556000396000f3fe608060405234801561001057600080fd5b50600436106100ea5760003560e01c80637df73e271161008c578063a0b7967b11610066578063a0b7967b14610724578063abe3219c14610742578063c6044c4614610762578063fc0f392d146107db576100ea565b80637df73e27146105bb578063979f1976146106155780639bf7ef6314610643576100ea565b806339125215116100c8578063391252151461020457806345550a51146103105780636ff89db0146103ff578063736c0d5b14610561576100ea565b806306661abd146100ef5780630dcd7a6c1461010d578063158ef93e146101e4575b600080fd5b6100f76107e5565b6040518082815260200191505060405180910390f35b6101e2600480360360c081101561012357600080fd5b81019080803573ffffffffffffffffffffffffffffffffffffffff16906020019092919080359060200190929190803573ffffffffffffffffffffffffffffffffffffffff16906020019092919080359060200190929190803590602001909291908035906020019064010000000081111561019e57600080fd5b8201836020820111156101b057600080fd5b803590602001918460018302840111640100000000831117156101d257600080fd5b90919293919293905050506107eb565b005b6101ec610981565b60405180821515815260200191505060405180910390f35b61030e600480360360c081101561021a57600080fd5b81019080803573ffffffffffffffffffffffffffffffffffffffff169060200190929190803590602001909291908035906020019064010000000081111561026157600080fd5b82018360208201111561027357600080fd5b8035906020019184600183028401116401000000008311171561029557600080fd5b90919293919293908035906020019092919080359060200190929190803590602001906401000000008111156102ca57600080fd5b8201836020820111156102dc57600080fd5b803590602001918460018302840111640100000000831117156102fe57600080fd5b9091929391929390505050610992565b005b6103d36004803603604081101561032657600080fd5b81019080803590602001909291908035906020019064010000000081111561034d57600080fd5b82018360208201111561035f57600080fd5b8035906020019184600183028401116401000000008311171561038157600080fd5b91908080601f016020809104026020016040519081016040528093929190818152602001838380828437600081840152601f19601f820116905080830192505050505050509192919290505050610d77565b604051808273ffffffffffffffffffffffffffffffffffffffff16815260200191505060405180910390f35b61054b600480360360c081101561041557600080fd5b810190808035906020019064010000000081111561043257600080fd5b82018360208201111561044457600080fd5b8035906020019184600183028401116401000000008311171561046657600080fd5b91908080601f016020809104026020016040519081016040528093929190818152602001838380828437600081840152601f19601f820116905080830192505050505050509192919290803573ffffffffffffffffffffffffffffffffffffffff16906020019092919080359060200190929190803590602001906401000000008111156104f357600080fd5b82018360208201111561050557600080fd5b8035906020019184600183028401116401000000008311171561052757600080fd5b90919293919293908035906020019092919080359060200190929190505050610ed0565b6040518082815260200191505060405180910390f35b6105a36004803603602081101561057757600080fd5b81019080803573ffffffffffffffffffffffffffffffffffffffff169060200190929190505050610f9b565b60405180821515815260200191505060405180910390f35b6105fd600480360360208110156105d157600080fd5b81019080803573ffffffffffffffffffffffffffffffffffffffff169060200190929190505050610fbb565b60405180821515815260200191505060405180910390f35b6106416004803603602081101561062b57600080fd5b8101908080359060200190929190505050611010565b005b6106f8600480360360a081101561065957600080fd5b81019080803573ffffffffffffffffffffffffffffffffffffffff16906020019092919080359060200190929190803590602001906401000000008111156106a057600080fd5b8201836020820111156106b257600080fd5b803590602001918460018302840111640100000000831117156106d457600080fd5b909192939192939080359060200190929190803590602001909291905050506112c8565b604051808273ffffffffffffffffffffffffffffffffffffffff16815260200191505060405180910390f35b61072c611559565b6040518082815260200191505060405180910390f35b61074a6115ac565b60405180821515815260200191505060405180910390f35b6107d96004803603602081101561077857600080fd5b810190808035906020019064010000000081111561079557600080fd5b8201836020820111156107a757600080fd5b803590602001918460208302840111640100000000831117156107c957600080fd5b90919293919293905050506115bf565b005b6107e3611846565b005b60025481565b6107f433610fbb565b610866576040517f08c379a000000000000000000000000000000000000000000000000000000000815260040180806020018281038252601f8152602001807f4e6f6e2d7369676e657220696e206f6e6c795369676e6572206d6574686f640081525060200191505060405180910390fd5b600061087061192a565b88888888886040516020018087805190602001908083835b602083106108ab5780518252602082019150602081019050602083039250610888565b6001836020036101000a0380198251168184511680821785525050505050509050018673ffffffffffffffffffffffffffffffffffffffff1660601b81526014018581526020018473ffffffffffffffffffffffffffffffffffffffff1660601b8152601401838152602001828152602001965050505050505060405160208183030381529060405280519060200120905061094b8882858589896112c8565b5061097788888873ffffffffffffffffffffffffffffffffffffffff166119679092919063ffffffff16565b5050505050505050565b60018054906101000a900460ff1681565b61099b33610fbb565b610a0d576040517f08c379a000000000000000000000000000000000000000000000000000000000815260040180806020018281038252601f8152602001807f4e6f6e2d7369676e657220696e206f6e6c795369676e6572206d6574686f640081525060200191505060405180910390fd5b6000610a17611a09565b8989898989896040516020018088805190602001908083835b60208310610a535780518252602082019150602081019050602083039250610a30565b6001836020036101000a0380198251168184511680821785525050505050509050018773ffffffffffffffffffffffffffffffffffffffff1660601b8152601401868152602001858580828437808301925050508381526020018281526020019750505050505050506040516020818303038152906040528051906020012090506000610ae48a8386868a8a6112c8565b90507f59bed9ab5d78073465dd642a9e3e76dfdb7d53bcae9d09df7d0b8f5234d5a8063382848d8d8d8d604051808873ffffffffffffffffffffffffffffffffffffffff1681526020018773ffffffffffffffffffffffffffffffffffffffff1681526020018681526020018573ffffffffffffffffffffffffffffffffffffffff168152602001848152602001806020018281038252848482818152602001925080828437600081840152601f19601f8201169050808301925050509850505050505050505060405180910390a160008a73ffffffffffffffffffffffffffffffffffffffff168a8a8a60405180838380828437808301925050509250505060006040518083038185875af1925050503d8060008114610c21576040519150601f19603f3d011682016040523d82523d6000602084013e610c26565b606091505b5050905080610c9d576040517f08c379a00000000000000000000000000000000000000000000000000000000081526004018080602001828103825260158152602001807f43616c6c20657865637574696f6e206661696c6564000000000000000000000081525060200191505060405180910390fd5b7f59bed9ab5d78073465dd642a9e3e76dfdb7d53bcae9d09df7d0b8f5234d5a8063383858e8e8e8e604051808873ffffffffffffffffffffffffffffffffffffffff1681526020018773ffffffffffffffffffffffffffffffffffffffff1681526020018681526020018573ffffffffffffffffffffffffffffffffffffffff168152602001848152602001806020018281038252848482818152602001925080828437600081840152601f19601f8201169050808301925050509850505050505050505060405180910390a15050505050505050505050565b60006041825114610df0576040517f08c379a00000000000000000000000000000000000000000000000000000000081526004018080602001828103825260208152602001807f496e76616c6964207369676e6174757265202d2077726f6e67206c656e67746881525060200191505060405180910390fd5b60008060006020850151925060408501519150606085015160001a905060008660405160200180807f19457468657265756d205369676e6564204d6573736167653a0a333200000000815250601c0182815260200191505060405160208183030381529060405280519060200120905060018183868660405160008152602001604052604051808581526020018460ff1681526020018381526020018281526020019450505050506020604051602081039080840390855afa158015610eba573d6000803e3d6000fd5b5050506020604051035194505050505092915050565b6000878787878787876040516020018088805190602001908083835b60208310610f0f5780518252602082019150602081019050602083039250610eec565b6001836020036101000a0380198251168184511680821785525050505050509050018773ffffffffffffffffffffffffffffffffffffffff1660601b815260140186815260200185858082843780830192505050838152602001828152602001975050505050505050604051602081830303815290604052805190602001209050979650505050505050565b60006020528060005260406000206000915054906101000a900460ff1681565b60008060008373ffffffffffffffffffffffffffffffffffffffff1673ffffffffffffffffffffffffffffffffffffffff16815260200190815260200160002060009054906101000a900460ff169050919050565b61101933610fbb565b61108b576040517f08c379a000000000000000000000000000000000000000000000000000000000815260040180806020018281038252601f8152602001807f4e6f6e2d7369676e657220696e206f6e6c795369676e6572206d6574686f640081525060200191505060405180910390fd5b6000611095611dd5565b6003600a806020026040519081016040528092919082600a80156110ce576020028201915b8154815260200190600101908083116110ba575b5050505050905060005b600a8110156111a057838282600a81106110ee57fe5b60200201511415611167576040517f08c379a00000000000000000000000000000000000000000000000000000000081526004018080602001828103825260188152602001807f53657175656e636520494420616c72656164792075736564000000000000000081525060200191505060405180910390fd5b8183600a811061117357fe5b60200201518282600a811061118457fe5b60200201511015611193578092505b80806001019150506110d8565b508082600a81106111ad57fe5b60200201518311611226576040517f08c379a00000000000000000000000000000000000000000000000000000000081526004018080602001828103825260188152602001807f53657175656e63652049442062656c6f772077696e646f77000000000000000081525060200191505060405180910390fd5b6127108183600a811061123557fe5b6020020151018311156112b0576040517f08c379a00000000000000000000000000000000000000000000000000000000081526004018080602001828103825260198152602001807f53657175656e63652049442061626f7665206d6178696d756d0000000000000081525060200191505060405180910390fd5b82600383600a81106112be57fe5b0181905550505050565b6000600160009054906101000a900460ff1615806112eb57506112ea87610fbb565b5b61135d576040517f08c379a000000000000000000000000000000000000000000000000000000000815260040180806020018281038252601e8152602001807f45787465726e616c207472616e7366657220696e2073616665206d6f6465000081525060200191505060405180910390fd5b428310156113d3576040517f08c379a00000000000000000000000000000000000000000000000000000000081526004018080602001828103825260138152602001807f5472616e73616374696f6e20657870697265640000000000000000000000000081525060200191505060405180910390fd5b60006114238787878080601f016020809104026020016040519081016040528093929190818152602001838380828437600081840152601f19601f82011690508083019250505050505050610d77565b905061142e83611010565b61143781610fbb565b6114a9576040517f08c379a000000000000000000000000000000000000000000000000000000000815260040180806020018281038252600e8152602001807f496e76616c6964207369676e657200000000000000000000000000000000000081525060200191505060405180910390fd5b3373ffffffffffffffffffffffffffffffffffffffff168173ffffffffffffffffffffffffffffffffffffffff16141561154b576040517f08c379a00000000000000000000000000000000000000000000000000000000081526004018080602001828103825260178152602001807f5369676e6572732063616e6e6f7420626520657175616c00000000000000000081525060200191505060405180910390fd5b809150509695505050505050565b6000806000905060005b600a8110156115a15781600382600a811061157a57fe5b0154111561159457600381600a811061158f57fe5b015491505b8080600101915050611563565b506001810191505090565b600160009054906101000a900460ff1681565b60018054906101000a900460ff1615611640576040517f08c379a000000000000000000000000000000000000000000000000000000000815260040180806020018281038252601c8152602001807f436f6e747261637420616c726561647920696e697469616c697a65640000000081525060200191505060405180910390fd5b600382829050146116b9576040517f08c379a00000000000000000000000000000000000000000000000000000000081526004018080602001828103825260198152602001807f496e76616c6964206e756d626572206f66207369676e6572730000000000000081525060200191505060405180910390fd5b60005b828290508160ff16101561182757600073ffffffffffffffffffffffffffffffffffffffff1683838360ff168181106116f157fe5b9050602002013573ffffffffffffffffffffffffffffffffffffffff1673ffffffffffffffffffffffffffffffffffffffff161415611798576040517f08c379a000000000000000000000000000000000000000000000000000000000815260040180806020018281038252600e8152602001807f496e76616c6964207369676e657200000000000000000000000000000000000081525060200191505060405180910390fd5b600160008085858560ff168181106117ac57fe5b9050602002013573ffffffffffffffffffffffffffffffffffffffff1673ffffffffffffffffffffffffffffffffffffffff1673ffffffffffffffffffffffffffffffffffffffff16815260200190815260200160002060006101000a81548160ff02191690831515021790555080806001019150506116bc565b5060018060016101000a81548160ff0219169083151502179055505050565b61184f33610fbb565b6118c1576040517f08c379a000000000000000000000000000000000000000000000000000000000815260040180806020018281038252601f8152602001807f4e6f6e2d7369676e657220696e206f6e6c795369676e6572206d6574686f640081525060200191505060405180910390fd5b60018060006101000a81548160ff0219169083151502179055507f0909e8f76a4fd3e970f2eaef56c0ee6dfaf8b87c5b8d3f56ffce78e825a9115733604051808273ffffffffffffffffffffffffffffffffffffffff16815260200191505060405180910390a1565b60606040518060400160405280600581526020017f4552433230000000000000000000000000000000000000000000000000000000815250905090565b611a048363a9059cbb60e01b8484604051602401808373ffffffffffffffffffffffffffffffffffffffff16815260200182815260200192505050604051602081830303815290604052907bffffffffffffffffffffffffffffffffffffffffffffffffffffffff19166020820180517bffffffffffffffffffffffffffffffffffffffffffffffffffffffff8381831617835250505050611a46565b505050565b60606040518060400160405280600581526020017f4554484552000000000000000000000000000000000000000000000000000000815250905090565b6060611aa8826040518060400160405280602081526020017f5361666545524332303a206c6f772d6c6576656c2063616c6c206661696c65648152508573ffffffffffffffffffffffffffffffffffffffff16611b359092919063ffffffff16565b9050600081511115611b3057808060200190516020811015611ac957600080fd5b8101908080519060200190929190505050611b2f576040517f08c379a000000000000000000000000000000000000000000000000000000000815260040180806020018281038252602a815260200180611e1f602a913960400191505060405180910390fd5b5b505050565b6060611b448484600085611b4d565b90509392505050565b606082471015611ba8576040517f08c379a0000000000000000000000000000000000000000000000000000000008152600401808060200182810382526026815260200180611df96026913960400191505060405180910390fd5b611bb185611cf6565b611c23576040517f08c379a000000000000000000000000000000000000000000000000000000000815260040180806020018281038252601d8152602001807f416464726573733a2063616c6c20746f206e6f6e2d636f6e747261637400000081525060200191505060405180910390fd5b600060608673ffffffffffffffffffffffffffffffffffffffff1685876040518082805190602001908083835b60208310611c735780518252602082019150602081019050602083039250611c50565b6001836020036101000a03801982511681845116808217855250505050505090500191505060006040518083038185875af1925050503d8060008114611cd5576040519150601f19603f3d011682016040523d82523d6000602084013e611cda565b606091505b5091509150611cea828286611d09565b92505050949350505050565b600080823b905060008111915050919050565b60608315611d1957829050611dce565b600083511115611d2c5782518084602001fd5b816040517f08c379a00000000000000000000000000000000000000000000000000000000081526004018080602001828103825283818151815260200191508051906020019080838360005b83811015611d93578082015181840152602081019050611d78565b50505050905090810190601f168015611dc05780820380516001836020036101000a031916815260200191505b509250505060405180910390fd5b9392505050565b604051806101400160405280600a9060208202803683378082019150509050509056fe416464726573733a20696e73756666696369656e742062616c616e636520666f722063616c6c5361666545524332303a204552433230206f7065726174696f6e20646964206e6f742073756363656564a2646970667358221220846450d94bfaef1e639a1fa9e1163e78ab608613581c5c5439018f7c3190e7f364736f6c63430007030033",
    "linkReferences": {},
    "deployedLinkReferences": {}
}