{
  "_format": "hh-sol-artifact-1",
  "contractName": "Box",
  "sourceName": "contracts/Box.sol",
  "abi": [
    {
      "inputs": [
        {
          "internalType": "uint256",
          "name": "newValue",
          "type": "uint256"
        }
      ],
      "name": "store",
      "outputs": [],
      "stateMutability": "nonpayable",
      "type": "function"
    },
    {
      "inputs": [],
      "name": "value",
      "outputs": [
        {
          "internalType": "uint256",
          "name": "",
          "type": "uint256"
        }
      ],
      "stateMutability": "view",
      "type": "function"
    }
  ],
  "bytecode": "0x608060405234801561001057600080fd5b5061012c806100206000396000f3fe6080604052348015600f57600080fd5b506004361060325760003560e01c80633fa4f2451460375780636057361d146051575b600080fd5b603d6069565b6040516048919060bf565b60405180910390f35b6067600480360381019060639190608c565b606f565b005b60005481565b8060008190555050565b60008135905060868160e2565b92915050565b600060208284031215609d57600080fd5b600060a9848285016079565b91505092915050565b60b98160d8565b82525050565b600060208201905060d2600083018460b2565b92915050565b6000819050919050565b60e98160d8565b811460f357600080fd5b5056fea264697066735822122018acbfb64cb7fec944af4a19d7713a95b22bc970b54ea8b247b407b117c3a28664736f6c63430008030033",
  "linkReferences": {},
  "deployedLinkReferences": {}
}