{
    "_format": "hh-sol-artifact-1",
    "contractName": "PolyjuiceAddress",
    "sourceName": "contracts/PolyjuiceAddress.sol",
    "abi": [
        {
            "inputs": [],
            "name": "getPolyjuiceAddress",
            "outputs": [
                {
                    "internalType": "address",
                    "name": "",
                    "type": "address"
                }
            ],
            "stateMutability": "view",
            "type": "function"
        }
    ],
    "bytecode": "0x608060405234801561001057600080fd5b5060db8061001f6000396000f3fe6080604052348015600f57600080fd5b506004361060285760003560e01c80634c2da4c614602d575b600080fd5b60336047565b604051603e9190605c565b60405180910390f35b600033905090565b6056816075565b82525050565b6000602082019050606f6000830184604f565b92915050565b6000607e826085565b9050919050565b600073ffffffffffffffffffffffffffffffffffffffff8216905091905056fea26469706673582212205439b03599902530852234b4d2b5d63b5ed45b17079593016c411668c0bcaf8064736f6c63430008030033",
    "linkReferences": {},
    "deployedLinkReferences": {}
}