{
    "_format": "hh-sol-artifact-1",
    "contractName": "BoxV2",
    "sourceName": "contracts/BoxV2.sol",
    "abi": [
        {
            "inputs": [],
            "name": "increment",
            "outputs": [],
            "stateMutability": "nonpayable",
            "type": "function"
        },
        {
            "inputs": [
                {
                    "internalType": "uint256",
                    "name": "newValue",
                    "type": "uint256"
                }
            ],
            "name": "store",
            "outputs": [],
            "stateMutability": "nonpayable",
            "type": "function"
        },
        {
            "inputs": [],
            "name": "value",
            "outputs": [
                {
                    "internalType": "uint256",
                    "name": "",
                    "type": "uint256"
                }
            ],
            "stateMutability": "view",
            "type": "function"
        }
    ],
    "bytecode": "0x608060405234801561001057600080fd5b506101f5806100206000396000f3fe608060405234801561001057600080fd5b50600436106100415760003560e01c80633fa4f245146100465780636057361d14610064578063d09de08a14610080575b600080fd5b61004e61008a565b60405161005b91906100fe565b60405180910390f35b61007e600480360381019061007991906100c6565b610090565b005b61008861009a565b005b60005481565b8060008190555050565b60016000546100a99190610119565b600081905550565b6000813590506100c0816101a8565b92915050565b6000602082840312156100d857600080fd5b60006100e6848285016100b1565b91505092915050565b6100f88161016f565b82525050565b600060208201905061011360008301846100ef565b92915050565b60006101248261016f565b915061012f8361016f565b9250827fffffffffffffffffffffffffffffffffffffffffffffffffffffffffffffffff0382111561016457610163610179565b5b828201905092915050565b6000819050919050565b7f4e487b7100000000000000000000000000000000000000000000000000000000600052601160045260246000fd5b6101b18161016f565b81146101bc57600080fd5b5056fea2646970667358221220e3836dd24392a128a90dfc1418cefce794aeea529b54926c9ac682a9849af88c64736f6c63430008030033",
    "linkReferences": {},
    "deployedLinkReferences": {}
}